:040000000BEF00F012
:100008006882FACF0AF0FBCF0BF0F0ED1CF0C0EFDE
:020018001FF0D7
:10100000000000803FCDCCCC3D0AD7233C6F12833B
:101010003A17B7D138ACC52737BD37863595BFD617
:101020003377CC2B325F708930FFE6DB2E08E53C4E
:101030001E6042A20D0000803F000020410000C859
:101040004200007A4400401C460050C3470024740C
:10105000498096184B20BCBE4C286B6E4EF9021589
:1010600050EC78AD60CAF24971010000000A00003E
:101070000064000000E803000010270000A08601C3
:101080000040420F008096980000E1F50500CA9AE2
:101090003B6C6576656C206F662073706565643D9A
:1010A00025312E3166005625643A25362E326620CB
:1010B000766F6C740D0074656D703D25332E32664D
:1010C00020430074656D703D25332E326620460046
:1010D0007468726573683D25312E31660057617200
:0710E0006E696E672100003C
:1010E800BB0E0001C96F000E0001CA6F35EF0EF08C
:1010F800250E0001DF19D8B40BD0B7C0D9FFB8C08E
:10110800DAFFDFC0DFFF0001B74BB82B35EF0EF079
:10111800000E0001CE6F000ECD6F000E0001CC6FE7
:10112800000ECB6FB9C0F6FFBAC0F7FF0800F55044
:10113800E9EC21F0D8A03FD0000E0001CE6F000EE0
:10114800CD6FCDC018F0CEC019F0000E1B6E0A0E80
:101158001A6E7CEC21F018C0CDF019C0CEF0D00E7C
:101168000001C16FFF0E0001C26FB9C0F6FFBAC01F
:10117800F7FF0800F5500001C36FC46B0001C151AF
:101188000001C3270001C2510001C4230001C3515B
:101198000001CD270001C4510001CE230001B94B45
:1011A800BA2BB9C0F6FFBAC0F7FF0800F550E9EC52
:1011B80021F0D8B0C6D7B9C0F6FFBAC0F7FF08000B
:1011C800F5502E0AD8A434D00001CC8D0001B94BBB
:1011D800BA2B000E0001DE6F000EDD6F1ED0DDC0E1
:1011E80018F0DEC019F0000E1B6E0A0E1A6E7CECA9
:1011F80021F0B9C0F6FFBAC0F7FF0800F55018266D
:10120800000E1922D00E18240001DD6FFF0E1920E0
:101218000001DE6F0001B94BBA2BB9C0F6FFBAC0A6
:10122800F7FF0800F550E9EC21F0D8A00CD0D7D78B
:10123800000E0001DE6F000EDD6F0001CC8903D0C7
:101248000001CC851AD0B9C0F6FFBAC0F7FF00017B
:10125800B94BBA2B0800F5CFDFF00001DF51000AC7
:10126800D8B444EF0EF0640AD8B407D0020AD8B450
:10127800E7D70F0AD8A435EF0EF0070E0001CC15FA
:10128800D8B489D30001CCA905D0000E0001DE6FC7
:10129800060EDD6FC9C0D9FFCAC0DAFFDECFD9F0AC
:1012A800DECFDAF0DECFDBF0DECFDCF0040E0001BB
:1012B800C927000ECA230001DCAF15D0D9C018F029
:1012C800DAC019F0DBC01AF0DCC01BF00BEC21F01F
:1012D80018C0D9F019C0DAF01AC0DBF01BC0DCF076
:1012E800030E0001CB13000E0001D86F000ED76F5C
:1012F8000001D9510001DA110001DB110001DC11F4
:10130800D8B488D00001DB35DC35820F0001D76FF7
:101318000001D86BFF0ED8230001D707D8A0D80743
:10132800D7C018F0D8C019F0000E1B6E030E1A6E45
:101338007CEC21F018C0D7F019C0D8F0D7C018F04D
:10134800D8C019F0000E1B6E0A0E1A6EEDEC1DF0D7
:1013580018C0D7F019C0D8F00001D8AF04D00001E8
:10136800D707D8A0D8070001D7510008B9EC12F068
:1013780049C0CFF04AC0D0F04BC0D1F04CC0D2F039
:10138800CFC020F0D0C021F0D1C022F0D2C023F0CD
:10139800D9C024F0DAC025F0DBC026F0DCC027F085
:1013A800A5EC16F020C0CFF021C0D0F022C0D1F0BB
:1013B80023C0D2F0CFC039F0D0C03AF0D1C03BF052
:1013C800D2C03CF0000E3D6E000E3E6E800E3F6EA9
:1013D8003F0E406E63EC1BF0D8B005D00001D70774
:1013E800D8A0D80717D0CFC039F0D0C03AF0D1C0B4
:1013F8003BF0D2C03CF0000E3D6E000E3E6E200E5B
:101408003F6E410E406E63EC1BF0D8A003D0000184
:10141800D74BD82B0001DEBF08D00001DE5123E1F5
:101428000D0E0001DD5DD8B01ED0D9C099F0DAC02C
:101438009AF0DBC09BF0DCC09CF00001DD514DEC64
:1014480018F049C09DF04AC09EF04BC09FF04CC0B8
:10145800A0F04BEC0EF099C0D9F09AC0DAF09BC01E
:10146800DBF09CC0DCF00001D8BF08D00001D851E7
:101478002AE10A0E0001D75DD8B025D00001D95164
:101488000001DA110001DB110001DC11D8B467D0CA
:10149800D9C039F0DAC03AF0DBC03BF0DCC03CF030
:1014A80082EC1CF039503A103B103C10D8A457D0AD
:1014B8000001D8BF54D00001D85105E1020E000147
:1014C800D75DD8A04CD0CFC039F0D0C03AF0D1C049
:1014D8003BF0D2C03CF05F0E3D6E700E3E6E890E42
:1014E8003F6E400E406E63EC1BF0D8B003D0000195
:1014F800F70E02D00001F80ED727FF0ED8230001FF
:10150800D751B9EC12F049C0CFF04AC0D0F04BC067
:10151800D1F04CC0D2F0D9C018F0DAC019F0DBC055
:101528001AF0DCC01BF0CFC01CF0D0C01DF0D1C039
:101538001EF0D2C01FF0CFEC1AF018C0D3F019C0BB
:10154800D4F01AC0D5F01BC0D6F0000E0001D96F38
:10155800000EDA6F000EDB6F000EDC6F3CD0D9C0D6
:1015680039F0DAC03AF0DBC03BF0DCC03CF082EC8A
:101578001CF039C0D3F03AC0D4F03BC0D5F03CC021
:10158800D6F0D9C0ADF0DAC0AEF0DBC0AFF0DCC049
:10159800B0F0D3C043F0D4C044F0D5C045F0D6C0B5
:1015A80046F0000E8EEC19F043C0B1F044C0B2F022
:1015B80045C0B3F046C0B4F04BEC20F0ADC0D9F054
:1015C800AEC0DAF0AFC0DBF0B0C0DCF0000E000156
:1015D800D86F000ED76F010E0001DF6F0A0E0001F1
:1015E800DF19D8B41ED00001DF51040D690EF324B1
:1015F800F66E100EF420F76E0900F5500001D35D69
:101608000900F5500001D4590900F5500001D559D9
:101618000900F5500001D659D8A003D00001DF2BEE
:10162800DDD7DFC0C1F00001C26BC1BFC207000136
:10163800DD510001C1270001DE510001C223000174
:10164800D7510001C1270001D8510001C223000170
:10165800C1510001CD5F0001C2510001CE5B000104
:10166800DD510001DE11D8B404D00001CD07D8A0A7
:10167800CE07030E0001CB150001C16F000E00015B
:10168800CC150001C26F0001C1510001C211D8B4CC
:101698000ED009D0B7C0D9FFB8C0DAFF200EDF6E70
:1016A8000001B74BB82B0001CD07D8A0CE07000129
:1016B800CEBF07D00001CE51EDE10001CD05D8B075
:1016C800E9D7030E0001CB150001C16F000E000120
:1016D800CC150001C26F0001C1510001C211D8B47C
:1016E80054D0B7C0D9FFB8C0DAFF2D0E4CD00001D6
:1016F800B74BB82B4AD0D3C018F0D4C019F0D5C016
:101708001AF0D6C01BF00001DF51040D690EF32456
:10171800F66E100EF420F76E0900F5CF1CF00900E4
:10172800F5CF1DF00900F5CF1EF00A00F5CF1FF028
:101738002FEC1EF018C0CFF019C0D0F01AC0D1F0AD
:101748001BC0D2F0CFC025F0D0C026F0D1C027F002
:10175800D2C028F00A0E296E000E2A6E000E2B6EDB
:10176800000E2C6E5CEC1FF025C0CFF026C0D0F028
:1017780027C0D1F028C0D2F00001CF51300FB7C038
:10178800D9FFB8C0DAFFDF6EB2D70001DF0700016A
:10179800DF29D8B40ED0AFD7B7C0D9FFB8C0DAFFA9
:1017A800300EDF6E0001B74BB82B0001D707D8A069
:1017B800D8070001D8BF07D00001D851EDE10001DA
:1017C800D705D8B0E9D70001DEBF0CD00001DE5143
:1017D80005E1090E0001DD5DD8A004D0080E000166
:1017E800DF6F02D0DDC0DFF00001DF510001DD5FF7
:1017F800000E0001DFBFFF0E0001DE5B0001DF51BC
:101808000001D8B409D0B7C0D9FFB8C0DAFF2E0E8E
:10181800DF6E0001B74BB82B0001DF51B9EC12F0B5
:1018280049C0C5F04AC0C6F04BC0C7F04CC0C8F0AC
:10183800D9C024F0DAC025F0DBC026F0DCC027F0E0
:10184800C5C020F0C6C021F0C7C022F0C8C023F030
:10185800A5EC16F020C039F021C03AF022C03BF0C8
:1018680023C03CF082EC1CF039C0D3F03AC0D4F06D
:101878003BC0D5F03CC0D6F073D0D3C018F0D4C06C
:1018880019F0D5C01AF0D6C01BF00001DF51040DC5
:10189800690EF324F66E100EF420F76E0900F5CFEA
:1018A8001CF00900F5CF1DF00900F5CF1EF00A0065
:1018B800F5CF1FF02FEC1EF018C0CFF019C0D0F0F4
:1018C8001AC0D1F01BC0D2F0CFC025F0D0C026F08E
:1018D800D1C027F0D2C028F00A0E296E000E2A6E59
:1018E800000E2B6E000E2C6E5CEC1FF025C0CFF0A6
:1018F80026C0D0F027C0D1F028C0D2F00001CF51C7
:10190800300FB7C0D9FFB8C0DAFFDF6E0001B74BA0
:10191800B82BD3C025F0D4C026F0D5C027F0D6C048
:1019280028F00001DF51040D690EF324F66E100E45
:10193800F420F76E0900F5CF29F00900F5CF2AF059
:101948000900F5CF2BF00A00F5CF2CF05CEC1FF066
:1019580025C0D3F026C0D4F027C0D5F028C0D6F0D3
:101968000001DF070001DF29D8B40ED086D7B7C041
:10197800D9FFB8C0DAFF300EDF6E0001B74BB82BC5
:101988000001DD07D8A0DE070001DD510001DE11EE
:10199800D8B467D1ECD7C9C0D9FFCAC0DAFFDECF47
:1019A800D3F0DDCFD4F00001000ED4BFFF0ED56F09
:1019B800D66F020E0001C927000ECA230001D6AF58
:1019C8000CD0030E0001CB130001D61FD51FD41F66
:1019D800D36D000ED423D523D6230001DD51000199
:1019E800DE11D8A40DD00001D3510001D41100019B
:1019F800D5110001D611D8A403D00001DD4BDE2B90
:101A0800010E0001DF6F0A0E0001DF19D8B41ED0E5
:101A18000001DF51040D690EF324F66E100EF42058
:101A2800F76E0900F5500001D35D0900F55000017B
:101A3800D4590900F5500001D5590900F5500001A5
:101A4800D659D8A003D00001DF2BDDD7800E0001C6
:101A5800DFBF7F0E0001C16F0001DD510001DF5DB6
:101A68000001DE51800A0001C159D8B003D0DDC0A1
:101A7800DFF018D00001DE51800A0001C16F0001BB
:101A8800DF510001DD5D800E0001DFBF7F0E000128
:101A9800C159D8B007D00001DF510001DD6FDE6BFE
:101AA800DDBFDE070001CD510001CE11D8B414D03E
:101AB800030E0001CB150001C16F000E0001CC150B
:101AC8000001C26F0001C1510001C211D8B404D095
:101AD8000001CD07D8A0CE070001CCAD1ED0000173
:101AE800CD510001DD5D0001DE51800A0001C16FAA
:101AF8000001CE51800A0001C159D8B009D00001B7
:101B0800DD510001CD5F0001DE510001CE5B05D043
:101B1800000E0001CE6F000ECD6F800E0001DFBFFA
:101B28007F0E0001C16F0001CD510001DF5D000192
:101B3800CE51800A0001C159D8B00BD00001DF5145
:101B48000001CD5F000E0001DFBFFF0E0001CE5B7C
:101B580005D0000E0001CE6F000ECD6F0001CD51F3
:101B68000001CE11D8B413D0B7C0D9FFB8C0DAFF7E
:101B7800200EDF6E0001B74BB82B0001CD07D8A0AF
:101B8800CE070001CD510001CE11D8A4EDD7030E28
:101B98000001CB150001C16F000E0001CC1500013A
:101BA800C26F0001C1510001C211D8B44FD0B7C0F3
:101BB800D9FFB8C0DAFF2D0EDF6E45D0DDC0C1F009
:101BC800DEC0C2F00001D890C137C2370001D890FA
:101BD800C137C237690E0001C125F66E100EC22149
:101BE800F76E0900F5CF1CF00900F5CF1DF00900CC
:101BF800F5CF1EF00A00F5CF1FF0D3C018F0D4C0FF
:101C080019F0D5C01AF0D6C01BF02FEC1EF018C082
:101C180025F019C026F01AC027F01BC028F00A0EBC
:101C2800296E000E2A6E000E2B6E000E2C6E5CECD8
:101C38001FF02550300F0001DF6FB7C0D9FFB8C0C3
:101C4800DAFFDFC0DFFF0001B74BB82B0001DD076B
:101C5800D8A0DE070001DD29B1E10001DE29D8A402
:101C6800ADD7B9C0F6FFBAC0F7FF0001B94BBA2B20
:101C78000800F5CFDFF00001DF51D8A47CEF08F0B1
:101C8800B7C0D9FFB8C0DAFF000EDF6E120000013E
:101C98009C51800B0001A96F00019C519C250001FB
:101CA800AB6F00019BAF02D00001AB810001AB51CB
:101CB8000001D8B412D00001AB29D8A409D0000E75
:101CC8000001996F000E9A6F000E9B6F000E9C6FBB
:101CD80000019B8F000E000108D0000E0001996FD3
:101CE800000E9A6F000E9B6F000E9C6F0001A051B2
:101CF800800B0001AA6F0001A9510001AA19D8B4EC
:101D080002D00001A98D0001A051A0250001AA6FF1
:101D180000019FAF02D00001AA810001AA51000171
:101D2800D8B412D00001AA29D8A409D0000E000105
:101D38009D6F000E9E6F000E9F6F000EA06F00013A
:101D48009F8F000E000108D0000E00019D6F000E4D
:101D58009E6F000E9F6F000EA06F0001AB51000137
:101D6800AA5DD8B024D00001A9AD03D0800E00012F
:101D7800A91BABC0ACF0AAC0ABF0ACC0AAF099C02C
:101D8800ACF09DC099F0ACC09DF09AC0ACF09EC07C
:101D98009AF0ACC09EF09BC0ACF09FC09BF0ACC06A
:101DA8009FF09CC0ACF0A0C09CF0ACC0A0F0000EAE
:101DB8000001AC6F0001AB510001A16FA26B0001E3
:101DC800A11FA21FA14BA22B0001AA510001A36FC2
:101DD800A46B0001A1510001A3270001A251000139
:101DE800A4230001A4BF3DD00001A45105E11A0EAF
:101DF8000001A35DD8A035D00001995100019A11C6
:101E080000019B1100019C11D8B402D0010E01D031
:101E1800000E0001AC6F000E0001996F000E9A6F62
:101E2800000E9B6F000E9C6FAAC0ABF020D0000183
:101E3800ACA107D00001D890AC3101090001AC6F0A
:101E480003D00001D890AC33000199A102D0000161
:101E5800AC8F00019C359C339B339A339933000136
:101E6800AB2B0001AA510001AB5DD8A0E0D700015F
:101E7800A9BD3FD00001AB510001D8A40AD0000E83
:101E88000001996F000E9A6F000E9B6F000E9C6FF9
:101E9800120000019D510001992700019E51000187
:101EA8009A2300019F5100019B230001A0510001CA
:101EB8009C2300019CA1CCD00001ACA109D0000159
:101EC800D890AC330001AC5101090001AC6F03D0CC
:101ED8000001D890AC33000199A102D00001AC8F69
:101EE80000019C359C339B339A3399330001AB2B0B
:101EF800AFD000019D510001995D00019E51000184
:101F08009A5900019F5100019B5900019C51800A78
:101F18000001A16F0001A051800A0001A159D8B0A9
:101F280050D099C0A1F09AC0A2F09BC0A3F09CC069
:101F3800A4F00001A11FA21FA31FA41FA12B000E24
:101F4800A223A323A42300019D510001A125000180
:101F5800A56F00019E510001A2210001A66F00019A
:101F68009F510001A3210001A76F0001A0510001AA
:101F7800A4210001A86FFF0E0001A5250001996F9B
:101F8800FF0E0001A62100019A6FFF0E0001A72194
:101F980000019B6FFF0E0001A82100019C6F800EBD
:101FA8000001A91B0001AC6D0001AC510001D8A4CF
:101FB80018D0010E00019927000E9A239B239C2319
:101FC80010D000019D510001995F00019E51000150
:101FD8009A5B00019F5100019B5B0001A051000129
:101FE8009C5B0001995100019A1100019B110001AD
:101FF8009C11D8A42AD00001AC510001D8A425D046
:10200800000E0001996F000E9A6F000E9B6F000E74
:102018009C6F12000001D89099379A379B379C37EC
:102028000001ACAF02D0000199810001ACA103D03E
:10203800D880000102D00001D890AC370001AB5124
:102048000001D8B402D00001AB0700019BAFE2D772
:10205800000E0001AA6F0001ACAF0DD0ACC0A1F01A
:102068007F0E0001A117D8A403D0000199A103D0C5
:10207800010E0001AA6F0001AA510001D8B426D0B0
:10208800010E00019927000E9A239B239C2300012F
:102098009CA11CD099C0A1F09AC0A2F09BC0A3F04B
:1020A8009CC0A4F00001A435A433A333A233A13308
:1020B800A1C099F0A2C09AF0A3C09BF0A4C09CF064
:1020C8000001AB29D8B402D00001AB2B0001AB2929
:1020D800D8B405D00001AB510001D8A411D0000E2E
:1020E8000001996F000E9A6F000E9B6F000E9C6F97
:1020F8000001AB510001D8A403D0000E0001A96F64
:102108000001ABA103D000019B8F02D000019B9F6F
:102118000001D890AB3100019C6F0001A9AF02D03B
:1021280000019C8F99C099F09AC09AF09BC09BF0CF
:102138009CC09CF01200000E5E6E000E5D6E000EDC
:102148000101346F000E336FF8EC21F0A2EC21F09E
:102158008FEC1FF023EC22F01BEC22F0828A0C0E8D
:1021680020EC20F0000E0101416F000E01012A6FE2
:10217800F2EC20F094800101435101014411D8B4DC
:10218800FAD70101435101014411D8A409D00C0E1A
:1021980020EC20F00101435101014411D8B4FAD7D1
:1021A80082BA03D0526A522A01D0526A523A52462F
:1021B80082505218DF0B5218826E000E0101426FD6
:1021C800020E0101426501D057D001014251A9EC2C
:1021D8001DF099C02FF19AC030F19BC031F19CC01D
:1021E80032F101014251040D350EF324D96E010E6E
:1021F800F420DA6E2FC1DEFF30C1DEFF31C1DEFF11
:1022080032C1DEFF07EC22F00009D8B413D033EC5A
:1022180022F00101416F530E01014119D8A402D0E7
:10222800010E06D04E0E01014119D8A403D0000EAC
:1022380001012A6F01012A510101D8B41AD0000EF8
:102248000001B76F010E0001B86FA60E0001B96F4B
:10225800100E0001BA6F42C1BBF00001BC6B2FC168
:10226800BDF030C1BEF031C1BFF032C1C0F074EC76
:1022780008F00101422BA4D7000ED5EC20F018C0BD
:1022880028F119C029F128C118F029C119F022EC48
:1022980021F081B003D00101331F341F01013351F4
:1022A80001013411D8A436D0010E226E010E93EC30
:1022B80020F03DC120F03EC121F03FC122F040C1D5
:1022C80023F0000E246E000E256EC80E266E420EF8
:1022D800276EA5EC16F020C020F121C021F122C004
:1022E80022F123C023F1000E0001B76F010E000197
:1022F800B86FB60E0001B96F100E0001BA6F20C199
:10230800BBF021C1BCF022C1BDF023C1BEF074EC0A
:1023180008F048D0010E226E010E93EC20F0000E5A
:10232800246E000E256EC80E266E420E276E3DC125
:1023380020F03EC121F03FC122F040C123F0A5ECBE
:1023480016F020C099F021C09AF022C09BF023C05B
:102358009CF0330E00019D6F330E9E6F070E9F6F2A
:10236800420EA06F4BEC0EF099C024F19AC025F1F3
:102378009BC026F19CC027F1000E0001B76F010E2B
:102388000001B86FC30E0001B96F100E0001BA6FDB
:1023980024C1BBF025C1BCF026C1BDF027C1BEF0E9
:1023A80074EC08F0000E266E010E276EB4EC21F0D6
:1023B800020E226E010E93EC20F0010ED5EC20F0F7
:1023C80018C05BF019C05CF0000E0001B76F010E79
:1023D8000001B86F910E0001B96F100E0001BA6FBD
:1023E80039C1ADF03AC1AEF03BC1AFF03CC1B0F07D
:1023F800F3EC1BF0ADC0BBF0AEC0BCF0AFC0BDF09D
:10240800B0C0BEF074EC08F0000E266E010E276E08
:10241800B4EC21F0000E52EC1DF0ADC02BF1AEC0B3
:102428002CF1AFC02DF1B0C02EF1030E226E010EBB
:1024380093EC20F0000E0001B76F010E0001B86F99
:10244800D00E0001B96F100E0001BA6F2BC1BBF09E
:102458002CC1BCF02DC1BDF02EC1BEF074EC08F04B
:10246800000E266E010E276EB4EC21F02BC139F058
:102478002CC13AF02DC13BF02EC13CF0000E246E69
:10248800000E256EC80E266E420E276E3DC120F046
:102498003EC121F03FC122F040C123F0A5EC16F067
:1024A80020C03DF021C03EF022C03FF023C040F0E4
:1024B80063EC1BF0D8B006D0DD0E196E100E1A6E44
:1024C80067EC21F0040E226E010E93EC20F0000E52
:1024D8000001B76F010E0001B86FD00E0001B96F8F
:1024E800100E0001BA6F35C1BBF036C1BCF037C160
:1024F800BDF038C1BEF074EC08F0000E266E010E77
:10250800276EB4EC21F0000E246E000E256E200E0E
:10251800266E410E276E35C120F036C121F037C135
:1025280022F038C123F0A5EC16F020C039F021C004
:102538003AF022C03BF023C03CF082EC1CF039C0DA
:1025480043F03AC044F0000E466E0A0E456EECECBD
:102558001EF0435024EC1FF0836E808A010E196E22
:102568002C0E186EC6EC21F00CD6516E51AE05D16A
:10257800516C5150800A120FD8A098D0000E1B6ED3
:102588000A0E1A6E000E466E640E456E5150436E6A
:10259800446A43BE4406ECEC1EF043C018F044C045
:1025A80019F0EDEC1DF0D89018361936D890183679
:1025B8001936240E1826000E1922010E1824F66E5C
:1025C800100E1920F76E0900F5CF24F00900F5CF99
:1025D80025F00900F5CF26F00A00F5CF27F0000E08
:1025E8001B6E640E1A6E5150186E196A18BE1906C1
:1025F800EDEC1DF0D89018361936D89018361936E3
:10260800480E1826000E1922010E1824F66E100E18
:102618001920F76E0900F5CF20F00900F5CF21F059
:102628000900F5CF22F00A00F5CF23F0A5EC16F04B
:1026380020C04DF021C04EF022C04FF023C050F012
:102648004DC020F04EC021F04FC022F050C023F002
:10265800000E466E0A0E456E5150436E446A43BEE4
:102668004406ECEC1EF0D89043364436D8904336F6
:102678004436010E4324F66E100E4420F76E09000E
:10268800F5CF24F00900F5CF25F00900F5CF26F0A5
:102698000A00F5CF27F0A5EC16F020C049F021C0BC
:1026A8004AF022C04BF023C04CF012005150800A6F
:1026B800750FD8A04DD0000E1B6E0A0E1A6E515021
:1026C800186E196A18BE1906EDEC1DF0D890183668
:1026D8001936D89018361936240E1826000E1922E5
:1026E800010E1824F66E100E1920F76E0900F5CFAA
:1026F80020F00900F5CF21F00900F5CF22F00A00FB
:10270800F5CF23F0000E466E0A0E456E5150436E0B
:10271800446A43BE4406ECEC1EF0D8904336443677
:10272800D89043364436010E4324F66E100E4420EA
:10273800F76E0900F5CF24F00900F5CF25F0090060
:10274800F5CF26F00A00F5CF27F0A5EC16F0A5D7AF
:102758005150040D010EF324F66E100EF420F76E9E
:102768000900F5CF49F00900F5CF4AF00900F5CF87
:102778004BF00A00F5CF4CF012005150800A120FAE
:10278800D8A098D0000E1B6E0A0E1A6E000E466E68
:10279800640E456E5150436E446A43BE4406ECECE9
:1027A8001EF043C018F044C019F0EDEC1DF0D890AD
:1027B80018361936D89018361936240E1826000EF1
:1027C8001922350E1824F66E100E1920F76E09001E
:1027D800F5CF24F00900F5CF25F00900F5CF26F054
:1027E8000A00F5CF27F0000E1B6E640E1A6E5150CA
:1027F800186E196A18BE1906EDEC1DF0D890183637
:102808001936D89018361936480E1826000E19228F
:10281800350E1824F66E100E1920F76E0900F5CF44
:1028280020F00900F5CF21F00900F5CF22F00A00C9
:10283800F5CF23F0A5EC16F020C04DF021C04EF0E6
:1028480022C04FF023C050F04DC020F04EC021F000
:102858004FC022F050C023F0000E466E0A0E456E9F
:102868005150436E446A43BE4406ECEC1EF0D890C7
:1028780043364436D89043364436350E4324F66EF4
:10288800100E4420F76E0900F5CF24F00900F5CFAB
:1028980025F00900F5CF26F00A00F5CF27F0A5ECC2
:1028A80016F020C049F021C04AF022C04BF023C0E6
:1028B8004CF012005150800A750FD8A04DD0000E70
:1028C8001B6E0A0E1A6E5150186E196A18BE190638
:1028D800EDEC1DF0D89018361936D8901836193600
:1028E800240E1826000E1922350E1824F66E100E26
:1028F8001920F76E0900F5CF20F00900F5CF21F077
:102908000900F5CF22F00A00F5CF23F0000E466E3D
:102918000A0E456E5150436E446A43BE4406ECECC1
:102928001EF0D89043364436D89043364436350E98
:102938004324F66E100E4420F76E0900F5CF24F0FC
:102948000900F5CF25F00900F5CF26F00A00F5CFEC
:1029580027F0A5EC16F0A5D75150040D350EF32439
:10296800F66E100EF420F76E0900F5CF49F0090055
:10297800F5CF4AF00900F5CF4BF00A00F5CF4CF03F
:10298800120000018351800B00018C6F00018351FC
:1029980083250001976F000182AF02D00001978163
:1029A800000197510001D8B412D000019729D8A48A
:1029B80009D0000E0001806F000E816F000E826F3B
:1029C800000E836F0001828F000E000108D0000EF8
:1029D8000001806F000E816F000E826F000E836F02
:1029E80000018751800B00018C1B0001875187254E
:1029F8000001986F000186AF02D0000198810001A4
:102A080098510001D8B412D000019829D8A409D04F
:102A1800000E0001846F000E856F000E866F000E99
:102A2800876F0001868F000E000108D0000E00019C
:102A3800846F000E856F000E866F000E876F000191
:102A48008451000185110001861100018711D8A465
:102A580017D0000E0001806F000E816F000E826F8C
:102A6800000E836F0001800E82137F0E831380C0D7
:102A780080F081C081F082C082F083C083F01200B0
:102A8800000197510001D8A412D0000E0001806FF8
:102A9800000E816F000E826F000E836F80C080F081
:102AA80081C081F082C082F083C083F012000001EF
:102AB80098510001886F896B0001881F891F884B16
:102AC800892B0001975100018A6F8B6B0001885197
:102AD80000018A270001895100018B237F0E000124
:102AE8008A250001916F000E00018B210001926F71
:102AF80080C08DF081C08EF082C08FF083C090F0CE
:102B0800000E0001806F000E816F000E826F000EB4
:102B1800836F000E0001936F000E946F000E956F87
:102B2800000E966F000E0001986F42D00001985178
:102B38000001D8B417D00001D8908D378E378F3761
:102B480090370001D890803781378237833700016A
:102B580096AF02D0000180810001D8909337943756
:102B6800953796370001845100018D5D000185512C
:102B780000018E590001865100018F5900018751CB
:102B880000019059D8A012D00001968D00018451FF
:102B980000018D5F0001855100018E5B00018651A7
:102BA80000018F5B000187510001905B0001982BA9
:102BB800190E00019865BAD700018D5100018E11D8
:102BC80000018F1100019011D8B418D00001938131
:102BD80015D00001D89080378137823783370001BC
:102BE80096AF02D0000180810001D89093379437C6
:102BF8009537963700019107D8A09207000182AF58
:102C0800E8D7000E0001986F000196AF24D0FF0EA0
:102C1800000193150001886FFF0E00019415000153
:102C2800896FFF0E0001951500018A6F7F0E000164
:102C3800961500018B6F0001885100018911000170
:102C48008A1100018B11D8A403D0000180A103D000
:102C5800010E0001986F000198510001D8B423D0EB
:102C6800010E00018027000E8123822383230001A7
:102C780083A119D080C088F081C089F082C08AF011
:102C880083C08BF000018B358B338A3389338833CB
:102C980088C080F089C081F08AC082F08BC083F040
:102CA8000001914B922B000192BF14D00001925168
:102CB80004E100019129D8A00DD0000E0001926F07
:102CC8009169000E0001806F000E816F000E826F07
:102CD800000E836F000192BF07D00001925115E1E9
:102CE80000019105D8B011D0000E0001926F000EBE
:102CF800916F000E0001806F000E816F000E826FD1
:102D0800000E836F000E00018C6F91C097F00001D8
:102D180097A103D00001828F02D00001829F000199
:102D2800D89097310001836F00018C510001831303
:102D380080C080F081C081F082C082F083C083F0BF
:102D480012002350800B2C6E23502324326E22BE97
:102D580032803250D8B40DD03228D8A408D0000E12
:102D6800206E000E216E000E226E000E236E228E43
:102D780008D0000E206E000E216E000E226E000E8E
:102D8800236E2750800B2C1A275027242D6E26BE21
:102D98002D802D50D8B40DD02D28D8A408D0000EE1
:102DA800246E000E256E000E266E000E276E268EEF
:102DB80008D0000E246E000E256E000E266E000E42
:102DC800276E2D50D8B403D03250D8A409D0000EA5
:102DD800206E000E216E000E226E000E236E120071
:102DE80026502002F3CF37F0F4CF38F037502E6E4C
:102DF8002F6A306A316A3850336E346A356A366AF7
:102E080025502102F3CF37F0F4CF38F037502E2673
:102E1800000E2F223022312238503326000E342261
:102E28003522362224502202F3CF37F0F4CF38F07F
:102E380037502E26000E2F223022312238503326CA
:102E4800000E34223522362230C031F02FC030F047
:102E58002EC02FF02E6A24502102F3CF37F0F4CF82
:102E680038F037502E2638502F22000E3022000E10
:102E7800312225502002F3CF37F0F4CF38F0375005
:102E88002E2638502F22000E3022000E312230C05C
:102E980031F02FC030F02EC02FF02E6A24502002BF
:102EA800F3CF37F0F4CF38F037502E2638502F2292
:102EB800000E3022000E312226502102F3CF37F0C7
:102EC800F4CF38F03750332638503422000E3522EC
:102ED800000E362225502202F3CF37F0F4CF38F017
:102EE8003750332638503422000E3522000E362251
:102EF80026502202F3CF37F0F4CF38F03750286E3F
:102F08003850296E2A6A2B6A2AC02BF029C02AF069
:102F180028C029F0286A28503326295034222A50FC
:102F280035222B5036222EC028F02FC029F030C071
:102F38002AF031C02BF0190E05D0D8902B322A3246
:102F480029322832E82EF9D728503326295034223E
:102F58002A5035222B50362230C031F02FC030F0A5
:102F68002EC02FF02E6A2D5032C028F0296A28264C
:102F7800000E2922820E2824376EFF0E2920386E73
:102F88000FD0D890333634363536363631BE3380A6
:102F9800D8902E362F36303631363706D8A0380638
:102FA80035AEEFD7000E2D6E31AE16D0FF0E2E14B3
:102FB800286EFF0E2F14296EFF0E30142A6E7F0E16
:102FC80031142B6E285029102A102B10D8A402D0A7
:102FD80033A002D0010E2D6E2D50D8B41FD0010E93
:102FE8003326000E34223522362236A017D033C0BD
:102FF80028F034C029F035C02AF036C02BF02B3425
:103008002B322A322932283228C033F029C034F032
:103018002AC035F02BC036F0374A382A38BE0DD0D2
:10302800385003E13728D8A008D0000E336E000EC0
:10303800346E800E356E7F0E20D038BE05D03850E5
:103048000EE13704D8B00BD0000E336E000E346E8C
:10305800000E356E000E366E000E2C6E0FD037C087
:1030680032F0FF0E3316FF0E34167F0E3516000EA3
:10307800361632B0358ED8903230366E2C50361225
:1030880033C020F034C021F035C022F036C023F020
:1030980012000001886F6D0E00018865ACD0000E2B
:1030A8001B6E0A0E1A6E000E466E640E456E88C0C0
:1030B80043F0446AECEC1EF043C018F044C019F029
:1030C800EDEC1DF0D89018361936D8901836193608
:1030D800240E1826000E1922010E1824F66E100E62
:1030E8001920F76E0900F5CF24F00900F5CF25F077
:1030F8000900F5CF26F00A00F5CF27F0000E1B6E69
:10310800640E1A6E88C018F0196AEDEC1DF0D8909C
:1031180018361936D89018361936480E1826000E63
:103128001922010E1824F66E100E1920F76E0900E8
:10313800F5CF20F00900F5CF21F00900F5CF22F0F6
:103148000A00F5CF23F0A5EC16F020C084F021C0CA
:1031580085F022C086F023C087F0000E466E0A0E66
:10316800456E88C043F0446AECEC1EF0D8904336B4
:103178004436D89043364436010E4324F66E100E7A
:103188004420F76E0900F5CF24F00900F5CF25F0AB
:103198000900F5CF26F00A00F5CF27F084C020F00B
:1031A80085C021F086C022F087C023F0A5EC16F078
:1031B80020C080F021C081F022C082F023C083F0BB
:1031C80080C020F081C021F082C022F083C023F0AB
:1031D800000E246E000E256E000E266E3F0E276E22
:1031E800A5EC16F020C049F021C04AF022C04BF0EF
:1031F80023C04CF012000A0E0001886563D0000E4F
:10320800466E0A0E456E88C043F0446AECEC1EF028
:10321800D89043364436D89043364436010E43247A
:10322800F66E100E4420F76E0900F5CF24F0090061
:10323800F5CF25F00900F5CF26F00A00F5CF27F0E5
:10324800000E1B6E0A0E1A6E88C018F0196AEDEC93
:103258001DF0D89018361936D89018361936240E1D
:103268001826000E1922010E1824F66E100E1920C9
:10327800F76E0900F5CF20F00900F5CF21F009001D
:10328800F5CF22F00A00F5CF23F0A5EC16F020C008
:1032980084F021C085F022C086F023C087F084C066
:1032A80020F085C021F086C022F087C023F0000EF0
:1032B800246E000E256E000E266E3F0E276EA5ECBE
:1032C80016F090D700018851040D010EF324F66E14
:1032D800100EF420F76E0900F5CF20F00900F5CFA5
:1032E80021F00900F5CF22F00A00F5CF23F0000EF7
:1032F800246E000E256E000E266E3F0E276EA5EC7E
:1033080016F020C049F021C04AF022C04BF023C07B
:103318004CF012004B6E4B50D8A446AE1AD043C0A6
:1033280047F044C048F045C049F046C04AF0471E3F
:10333800481E491E4A1E472A000E482249224A2290
:1033480047C04DF048C04EF049C04FF04AC050F059
:1033580008D043C04DF044C04EF045C04FF046C0C1
:1033680050F04350441045104610D8A409D0000E20
:10337800436E000E446E000E456E000E466E12003F
:10338800960E4C6E06D04C2AD89050324F324E32A0
:103398004D32000E4D14476E000E4E14486E000E4E
:1033A8004F14496EFE0E50144A6E4750481049108B
:1033B8004A10D8B40DD0E7D74C2A010E4D26000E7E
:1033C8004E224F225022D89050324F324E324D3238
:1033D800000E4D14476E000E4E14486E000E4F142A
:1033E800496EFF0E50144A6E4750481049104A1053
:1033F800D8B407D0E1D74C06D8904D364E364F3664
:1034080050364FBE03D0020E4C60F5D74CB008D0F2
:10341800FF0E4D16FF0E4E167F0E4F16FF0E50165E
:10342800D8904C324CC047F0486A496A4A6A47C04B
:103438004AF0496A486A476A47504D1248504E1246
:1034480049504F124A5050124B50D8A446AE01D0A2
:10345800508E4DC043F04EC044F04FC045F050C0B0
:1034680046F012001AC020F0216A226A1934203668
:1034780001E321802050286E2850D8A409D0000EDE
:10348800186E000E196E000E1A6E000E1B6E1200DA
:103498001EC020F0216A226A1D34203601E32180F3
:1034A8002050276E2750D8A409D0000E186E000EA1
:1034B800196E000E1A6E000E1B6E1200198EFF0E8A
:1034C8001816FF0E1916000E1A161D8EFF0E1C1662
:1034D800FF0E1D16000E1E16000E236E000E246E23
:1034E800000E256E000E266E7F0E285E2750980F60
:1034F800285E180E276ED8902336243625362636B1
:103508001C50185C1D5019581E501A58D8A007D0C6
:103518001C50185E1D50195A1E501A5A2380D890F4
:10352800183619361A36272EE6D728AE16D0285060
:10353800800A970FD8B009D0000E186E000E196EC9
:10354800000E1A6E000E1B6E1200D890263225321D
:1035580024322332283EF9D715D0170E28640FD00D
:10356800000E186E000E196E000E1A6E000E1B6EFD
:103578001200D890233624362536263628062850B9
:10358800D8A4F7D723C018F024C019F025C01AF022
:1035980026C01BF012001A341B34256E2550D8A4FF
:1035A80009D0000E186E000E196E000E1A6E000E6D
:1035B8001B6E12001E341F34246E2450D8A409D068
:1035C800000E186E000E196E000E1A6E000E1B6E9D
:1035D80012001A8EFF0E1816FF0E1916FF0E1A1675
:1035E800000E1B161E8EFF0E1C16FF0E1D16FF0E5C
:1035F8001E16000E1F16000E206E000E216E000E05
:10360800226E000E236E7F0E255E2450A00F255ECD
:10361800200E246ED89020362136223623361C50B0
:10362800185C1D5019581E501A581F501B58D8A006
:1036380009D01C50185E1D50195A1E501A5A1F5096
:103648001B5A2080D890183619361A361B36242E65
:10365800E1D725AE16D02550800A9F0FD8B009D0E3
:10366800000E186E000E196E000E1A6E000E1B6EFC
:103678001200D8902332223221322032253EF9D747
:1036880015D01F0E25640FD0000E186E000E196E8F
:10369800000E1A6E000E1B6E1200D89020362136CE
:1036A8002236233625062550D8A4F7D720C018F08F
:1036B80021C019F022C01AF023C01BF01200000E1E
:1036C8003914416E000E3A14426E800E3B14436E5C
:1036D8007F0E3C14446E4150421043104410D8A44D
:1036E80008D0000E396E000E3A6E000E3B6E000ECA
:1036F8003C6E000E3D14416E000E3E14426E800E6C
:103708003F14436E7F0E4014446E415042104310E4
:103718004410D8A408D0000E3D6E000E3E6E000E78
:103728003F6E000E406E3CAE1DD039C041F03AC02D
:1037380042F03BC043F03CC044F0411E421E431ED1
:10374800441E412A000E422243224422000E4124F4
:10375800396E000E42203A6E000E43203B6E800EFA
:1037680044203C6E40AE1DD03DC041F03EC042F00A
:103778003FC043F040C044F0411E421E431E441E59
:10378800412A000E422243224422000E41243D6E6B
:10379800000E42203E6E000E43203F6E800E4420F5
:1037A800406E000E391A000E3A1A000E3B1A800EAF
:1037B8003C1A000E3D1A000E3E1A000E3F1A800EEB
:1037C800401A3D50395C3E503A583F503B584050A3
:1037D8003C58D8B002D0D8901200D8801200ADC0A2
:1037E80018F0AEC019F0AFC01AF0B0C01BF0B50E9B
:1037F8001C6E000E1D6EAFEC1EF00001B6AF17D0A8
:103808000001B0AF0AD0000E0001AD6F000EAE6F20
:10381800800EAF6FBF0EB06F1200000E0001AD6FCB
:10382800000EAE6F000EAF6F000EB06F12000001F9
:10383800B65105E11D0E0001B55DD8A009D0ADC097
:10384800ADF0AEC0AEF0AFC0AFF0B0C0B0F0120097
:10385800ADC039F0AEC03AF0AFC03BF0B0C03CF0FC
:1038680082EC1CF039C043F03AC044F03BC045F04C
:103878003CC046F0010E8EEC19F043C0B1F044C0D4
:10388800B2F045C0B3F046C0B4F0ADC039F0AEC038
:103898003AF0AFC03BF0B0C03CF0B1C03DF0B2C0B0
:1038A8003EF0B3C03FF0B4C040F063EC1BF0D8B0BA
:1038B8001CD0B1C099F0B2C09AF0B3C09BF0B4C0AC
:1038C8009CF0000E00019D6F000E9E6F800E9F6F92
:1038D800BF0EA06F4BEC0EF099C0ADF09AC0AEF0E1
:1038E8009BC0AFF09CC0B0F01200B1C0ADF0B2C048
:1038F800AEF0B3C0AFF0B4C0B0F012003B343C340B
:10390800426E4250D8A409D0000E396E000E3A6EAD
:10391800000E3B6E000E3C6E120039C03DF03AC0FE
:103928003EF03BC03FF03CC040F0200E05D0D890A0
:1039380040323F323E323D32E82EF9D73D50416E9B
:103948003B8EFF0E3916FF0E3A16FF0E3B16000E81
:103958003C16960E425E42AE16D04250800A970F31
:10396800D8B009D0000E396E000E3A6E000E3B6ECC
:10397800000E3C6E1200D8903C323B323A3239325B
:10398800423EF9D715D01F0E42640FD0000E396E93
:10399800000E3A6E000E3B6E000E3C6E1200D89080
:1039A80039363A363B363C3642064250D8A4F7D729
:1039B8004150D8B408D03C1E3B1E3A1E396C000E4C
:1039C8003A223B223C2239C039F03AC03AF03BC097
:1039D8003BF03CC03CF012000600E9CF0CF0EACF07
:1039E8000DF0E1CF0EF0E2CF0FF0D9CF10F0DACF23
:1039F80011F0F3CF12F0F4CF13F0F6CF14F0F7CFA5
:103A080015F0F8CF16F0F5CF17F09EA011D05BC0D7
:103A180001F05CC002F0000E046E030E036EB4ECFD
:103A280020F001C007F002C008F070EC1EF018D0BA
:103A38009EAA16D0650E5D24D96E000E5E20DA6E41
:103A480050EC21F0DF6E5D4A5E2A030E5D185E10B1
:103A5800D8A404D0000E5E6E000E5D6EF0EC1FF070
:103A680017C0F5FF16C0F8FF15C0F7FF14C0F6FF22
:103A780013C0F4FF12C0F3FF11C0DAFF10C0D9FF62
:103A88000FC0E2FF0EC0E1FF0DC0EAFF0CC0E9FF66
:103A98000BC0FBFF0AC0FAFF689211000001B56F66
:103AA8000001B551D5EC20F018C0B6F019C0B7F038
:103AB800000E0001846FC00E856F7F0E866F440E66
:103AC800876FB6C018F0B7C019F0FF0E1B6EC40E92
:103AD8001A6E7CEC21F018C043F019C044F0000EB7
:103AE80044BEFF0E456E466E010E8EEC19F043C0C3
:103AF80080F044C081F045C082F046C083F0C5EC38
:103B080014F080C099F081C09AF082C09BF083C005
:103B18009CF0000E00019D6F000E9E6F480E9F6F77
:103B2800420EA06F4BEC0EF099C0B1F09AC0B2F003
:103B38009BC0B3F09CC0B4F0B1C0ADF0B2C0AEF061
:103B4800B3C0AFF0B4C0B0F012000001A16F000123
:103B5800A151D5EC20F018C0A2F019C0A3F0A2C062
:103B680018F0A3C019F0000E1B6E050E1A6E7CEC3F
:103B780021F018C043F019C044F0000E44BEFF0EF7
:103B8800456E466E010E8EEC19F043C080F044C0BD
:103B980081F045C082F046C083F0000E0001846FBA
:103BA800C00E856F7F0E866F440E876FC5EC14F0CC
:103BB80080C09DF081C09EF082C09FF083C0A0F0BD
:103BC8009DC099F09EC09AF09FC09BF0A0C09CF049
:103BD8001200000E1D6E1BAE06D01A6C1B1ED8B04C
:103BE8001B2A010E1D6E19AE06D0186C191ED8B00E
:103BF800192A010E1D1A000E1F6E000E1E6E1A5095
:103C08001B10D8B41CD0010E1C6E04D0D8901A36E4
:103C18001B361C2A1BAEFAD7D8901E361F361A50F0
:103C2800185C1B501958D8A005D01A50185E1B50A4
:103C3800195A1E80D8901B321A321C2EEDD71D50EF
:103C4800D8B404D01E6C1F1ED8B01F2A1EC018F08E
:103C58001FC019F01200000E206E000E216E000E1B
:103C6800226E000E236E1C501D101E101F10D8B49B
:103C78002AD0010E246E06D0D8901C361D361E366A
:103C88001F36242A1FAEF8D7D89020362136223680
:103C980023361C50185C1D5019581E501A581F50B6
:103CA8001B58D8A009D01C50185E1D50195A1E5018
:103CB8001A5A1F501B5A2080D8901F321E321D32AC
:103CC8001C32242EE1D720C018F021C019F022C0E0
:103CD8001AF023C01BF012009E90554A562A574AE4
:103CE800582A07C001F008C002F0000E046E140E36
:103CF800036E8FEC21F00150555C02505658D8A045
:103D080010D081B203D0096A092A01D0096A09468C
:103D180081500918FD0B0918816E000E566E000EB1
:103D2800556E565004E1050E555CD8A011D081B4EB
:103D380003D0096A092A01D0096A0946094681504F
:103D48000918FB0B0918816E000E586E000E576E8D
:103D58002EEC22F01200185019101A101B10D8A4BB
:103D680009D01CC0D9FF1DC0DAFF000EDE6E000EA0
:103D7800DD6E12001B507F0B1E6E1F6AD8901E3618
:103D88001F361CC0D9FF1DC0DAFF1EC0DEFF1FC0D2
:103D9800DDFF1AAE03D01E6A1E2A01D01E6A1E500D
:103DA8001CC0D9FF1DC0DAFFDE12000EDD121CC0D8
:103DB800D9FF1DC0DAFF820EDE26FF0EDD221B8032
:103DC8001B821B841B861B881B8A1B9C1A9E120045
:103DD800000E486E44AE06D0436C441ED8B0442A48
:103DE800010E486E46AE04D0456C461ED8B0462A31
:103DF80045504610D8B418D0010E476E04D0D8905C
:103E080045364636472A46AEFAD74550435C4650B3
:103E18004458D8A004D04550435E4650445AD890E0
:103E280046324532472EF1D74850D8B404D0436CB7
:103E3800441ED8B0442A43C043F044C044F01200A2
:103E4800186E16D03F0E1200060E12005B0E1200FE
:103E58004F0E1200660E12006D0E12007D0E12003B
:103E6800070E12007F0E12006F0E1200000E1200D5
:103E78001850000AD8B4E6D7010AD8B4E5D7030A1F
:103E8800D8B4E4D7010AD8B4E3D7070AD8B4E2D73C
:103E9800010AD8B4E1D7030AD8B4E0D7010AD8B4E4
:103EA800DFD70F0AD8B4DED7010AD8B4DDD7DED7FA
:103EB80029502A102B102C10D8B424D0010E2D6EA6
:103EC80006D0D89029362A362B362C362D2A2CAEF9
:103ED800F8D72950255C2A5026582B5027582C50A3
:103EE8002858D8A008D02950255E2A50265A2B5089
:103EF800275A2C50285AD8902C322B322A32293261
:103F08002D2EE7D725C025F026C026F027C027F09C
:103F180028C028F0120084948492000E196E190E9D
:103F2800186EC6EC21F0010E226E030E226401D039
:103F38000BD0030ED8EC21F0000E196E060E186E89
:103F4800C6EC21F0222AF1D7020ED8EC21F0000E9F
:103F5800226E030E226401D012002250010D610E60
:103F6800F324D96E000EF420DA6EDF50206E000EB6
:103F78006FEC20F0222AEDD70101446B436B00EE71
:103F880053F00E0EEE6AE806FDE1750EF66E440E6D
:103F9800F76E000EF86E00EEE0F010EE04F0090087
:103FA800F5CFEEFFE550E150FAE16E0EF66E440EE5
:103FB800F76E000EF86E00EE61F010EE07F00900E3
:103FC800F5CFEEFFE550E150FAE168906892000EF7
:103FD800F86E00019FEF10F06F0E6518D8A412005C
:103FE8006E0E6618D8A410D0000E5E6E000E5D6EC0
:103FF800000E0101446F010E436F0A0E656E0A0E32
:10400800666E0A0E676E1200660E6618D8A4120055
:10401800660E6718D8A41200000E5E6E000E5D6E64
:10402800000E0101446F000E436F0A0E656E0A0E02
:10403800666E0A0E676E1200256E1ED0010E206E87
:10404800000E6FEC20F0000E196E020E186EC6EC12
:1040580021F01200020E226E010E93EC20F01200E5
:10406800100E206E000E6FEC20F0120025C020F01C
:10407800010E6FEC20F012002550080AD8B4F0D7D2
:10408800020AD8B4E7D7060AD8B4D8D7EFD7000EB3
:104098000001B11B000EB21B000EB31B800EB41B37
:1040A800ADC099F0AEC09AF0AFC09BF0B0C09CF024
:1040B800B1C09DF0B2C09EF0B3C09FF0B4C0A0F0F4
:1040C8004BEC0EF099C0ADF09AC0AEF09BC0AFF0CB
:1040D8009CC0B0F01200216E21B002D0849401D0AF
:1040E8008484010E39EC21F0010E39EC21F0849220
:1040F80020380F0BD8EC21F020500F0BD8EC21F012
:104108002150D8B405D0320E0400E82EFDD7120095
:10411800000E196E020E186EC6EC21F01200236E06
:1041280009D0800E05D0C00E03D0900E01D0D00E5D
:10413800246E0DD02250010AD8B4F3D7030AD8B49C
:10414800F2D7010AD8B4F1D7070AD8B4F0D72304B4
:10415800242624508009206E000E6FEC20F01200F7
:1041680003500410D8B418D0010E056E04D0D890AE
:1041780003360436052A04AEFAD70350015C04500E
:104188000258D8A004D00350015E0450025AD890B7
:1041980004320332052EF1D701C001F002C002F04B
:1041A80012001C6E1CC01AF01A461A46C2501A1881
:1041B800C30B1A18C26EC282C2B2FED7C350C4CF94
:1041C8001AF01B6A1AC01BF01A6A1A101D6E1B50CF
:1041D8001E6E1DC018F01EC019F01200000E566E9B
:1041E800000E556E000EF26E000E836E300ECD6E10
:1041F80029EC22F0D09E000E9D6E9D809D8A000EB7
:104208009E6E000EA06EF28EF28CCD8012001850B9
:1042180019101A101B10D8B408D0000E181A000E66
:10422800191A000E1A1A800E1B1A18C018F019C095
:1042380019F01AC01AF01BC01BF0120018C01AF0AF
:1042480019C01BF0D8901B321A32D8901B321A3280
:104258001A50BE6E18C01AF0030E1A161A3ABD503C
:104268001A18CF0B1A18BD6E12001B6E000E1D6EA9
:10427800000E1C6E03D004001C4A1D2A1B50186E29
:10428800196A1C50185C1950800A1A6E1D50800A51
:104298001A58D8A01200EFD7040081B603D0016ADB
:1042A800012A01D0016A01460146014681500118E0
:1042B800F70B0118816EAECF5FF001D00400ACA2FD
:1042C800FDD75F5012000AD019C0F6FF1AC0F7FFD9
:1042D8000800F55013EC22F0194A1A2A19C0F6FF03
:1042E8001AC0F7FF0800F5500009D8B41200ECD73F
:1042F80018501A02F3CF1CF0F4CF1DF018501B020F
:10430800F3501D2619501A02F3501D261CC018F030
:104318001DC019F0120001500302F3CF05F0F4CFCD
:1043280006F001500402F350062602500302F3502F
:10433800062605C001F006C002F01200B896000E6D
:10434800AC6E190EAF6E000EB06EAC84AC8A000E67
:10435800AB6EAB88AB8EAECF18F0AECF18F01200B4
:1043680009D026C0D9FF27C0DAFFDF5020EC20F0A3
:10437800264A272A26C0D9FF27C0DAFFDF50D8B43B
:104388001200EFD7000E1B6E000E1A6E06D0FA0E42
:104398000400E82EFDD71A4A1B2A1A50185C1B5035
:1043A8001958D8A01200F3D71F6E1FC01EF01E3A6E
:1043B80083501E180F0B1E18836E010E39EC21F066
:1043C8008482040000F0849212001A6E000E196EA6
:1043D8003A0E1A6005D02F0E1A6402D0010E196E1B
:1043E80019C018F018301200000EC26E0C0EC16E03
:1043F800F10E936E800E946ECF0E926E000E956E37
:10440800000E966E1200ABB402D0ABA202D0AB98ED
:10441800AB889EAA02D0010E1200000E1200186E80
:1044280001D00400ACA2FDD718C0ADFF1200CB68C4
:10443800000ECA6E0C0EBD6ECA8494941200000E53
:10444800C26EC280890EC06E12009E0ECF6E580ECC
:10445800CE6E12009E0ECF6E580ECE6E1200AECFEC
:1044680018F018501200280C0106636363CDCC05C0
:014478004201
:020000040020DA
:08000000FFFFFFFFFFFFFFFF00
:020000040030CA
:0E000000FF011F1FFF8385FF0FC00FE00F40A1
:00000001FF
